{
  "_format": "hh-sol-artifact-1",
  "contractName": "MyEpicGame",
  "sourceName": "contracts/MyEpicGame.sol",
  "abi": [
    {
      "inputs": [
        {
          "internalType": "string[]",
          "name": "characterNames",
          "type": "string[]"
        },
        {
          "internalType": "string[]",
          "name": "characterImageURIs",
          "type": "string[]"
        },
        {
          "internalType": "uint256[]",
          "name": "characterHp",
          "type": "uint256[]"
        },
        {
          "internalType": "uint256[]",
          "name": "characterAttackDmg",
          "type": "uint256[]"
        },
        {
          "internalType": "string",
          "name": "bossName",
          "type": "string"
        },
        {
          "internalType": "string",
          "name": "bossImageURI",
          "type": "string"
        },
        {
          "internalType": "uint256",
          "name": "bossHp",
          "type": "uint256"
        },
        {
          "internalType": "uint256",
          "name": "bossAttackDamage",
          "type": "uint256"
        }
      ],
      "stateMutability": "nonpayable",
      "type": "constructor"
    },
    {
      "anonymous": false,
      "inputs": [
        {
          "indexed": true,
          "internalType": "address",
          "name": "owner",
          "type": "address"
        },
        {
          "indexed": true,
          "internalType": "address",
          "name": "approved",
          "type": "address"
        },
        {
          "indexed": true,
          "internalType": "uint256",
          "name": "tokenId",
          "type": "uint256"
        }
      ],
      "name": "Approval",
      "type": "event"
    },
    {
      "anonymous": false,
      "inputs": [
        {
          "indexed": true,
          "internalType": "address",
          "name": "owner",
          "type": "address"
        },
        {
          "indexed": true,
          "internalType": "address",
          "name": "operator",
          "type": "address"
        },
        {
          "indexed": false,
          "internalType": "bool",
          "name": "approved",
          "type": "bool"
        }
      ],
      "name": "ApprovalForAll",
      "type": "event"
    },
    {
      "anonymous": false,
      "inputs": [
        {
          "indexed": false,
          "internalType": "uint256",
          "name": "newBossHp",
          "type": "uint256"
        },
        {
          "indexed": false,
          "internalType": "uint256",
          "name": "newPlayerHp",
          "type": "uint256"
        }
      ],
      "name": "AttackComplete",
      "type": "event"
    },
    {
      "anonymous": false,
      "inputs": [
        {
          "indexed": false,
          "internalType": "address",
          "name": "sender",
          "type": "address"
        },
        {
          "indexed": false,
          "internalType": "uint256",
          "name": "tokenId",
          "type": "uint256"
        },
        {
          "indexed": false,
          "internalType": "uint256",
          "name": "characterIndex",
          "type": "uint256"
        }
      ],
      "name": "CharacterNFTMinted",
      "type": "event"
    },
    {
      "anonymous": false,
      "inputs": [
        {
          "indexed": true,
          "internalType": "address",
          "name": "from",
          "type": "address"
        },
        {
          "indexed": true,
          "internalType": "address",
          "name": "to",
          "type": "address"
        },
        {
          "indexed": true,
          "internalType": "uint256",
          "name": "tokenId",
          "type": "uint256"
        }
      ],
      "name": "Transfer",
      "type": "event"
    },
    {
      "inputs": [
        {
          "internalType": "address",
          "name": "to",
          "type": "address"
        },
        {
          "internalType": "uint256",
          "name": "tokenId",
          "type": "uint256"
        }
      ],
      "name": "approve",
      "outputs": [],
      "stateMutability": "nonpayable",
      "type": "function"
    },
    {
      "inputs": [],
      "name": "attackBoss",
      "outputs": [],
      "stateMutability": "nonpayable",
      "type": "function"
    },
    {
      "inputs": [
        {
          "internalType": "address",
          "name": "owner",
          "type": "address"
        }
      ],
      "name": "balanceOf",
      "outputs": [
        {
          "internalType": "uint256",
          "name": "",
          "type": "uint256"
        }
      ],
      "stateMutability": "view",
      "type": "function"
    },
    {
      "inputs": [],
      "name": "bigBoss",
      "outputs": [
        {
          "internalType": "string",
          "name": "name",
          "type": "string"
        },
        {
          "internalType": "string",
          "name": "imageURI",
          "type": "string"
        },
        {
          "internalType": "uint256",
          "name": "hp",
          "type": "uint256"
        },
        {
          "internalType": "uint256",
          "name": "maxHp",
          "type": "uint256"
        },
        {
          "internalType": "uint256",
          "name": "attackDamage",
          "type": "uint256"
        }
      ],
      "stateMutability": "view",
      "type": "function"
    },
    {
      "inputs": [],
      "name": "checkIfUserHasNFT",
      "outputs": [
        {
          "components": [
            {
              "internalType": "uint256",
              "name": "characterIndex",
              "type": "uint256"
            },
            {
              "internalType": "string",
              "name": "name",
              "type": "string"
            },
            {
              "internalType": "string",
              "name": "imageURI",
              "type": "string"
            },
            {
              "internalType": "uint256",
              "name": "hp",
              "type": "uint256"
            },
            {
              "internalType": "uint256",
              "name": "maxHp",
              "type": "uint256"
            },
            {
              "internalType": "uint256",
              "name": "attackDamage",
              "type": "uint256"
            }
          ],
          "internalType": "struct MyEpicGame.CharacterAttributes",
          "name": "",
          "type": "tuple"
        }
      ],
      "stateMutability": "view",
      "type": "function"
    },
    {
      "inputs": [],
      "name": "getAllDefaultCharacters",
      "outputs": [
        {
          "components": [
            {
              "internalType": "uint256",
              "name": "characterIndex",
              "type": "uint256"
            },
            {
              "internalType": "string",
              "name": "name",
              "type": "string"
            },
            {
              "internalType": "string",
              "name": "imageURI",
              "type": "string"
            },
            {
              "internalType": "uint256",
              "name": "hp",
              "type": "uint256"
            },
            {
              "internalType": "uint256",
              "name": "maxHp",
              "type": "uint256"
            },
            {
              "internalType": "uint256",
              "name": "attackDamage",
              "type": "uint256"
            }
          ],
          "internalType": "struct MyEpicGame.CharacterAttributes[]",
          "name": "",
          "type": "tuple[]"
        }
      ],
      "stateMutability": "view",
      "type": "function"
    },
    {
      "inputs": [],
      "name": "getAllPlayers",
      "outputs": [
        {
          "components": [
            {
              "internalType": "address",
              "name": "playerAddress",
              "type": "address"
            },
            {
              "internalType": "uint256",
              "name": "nftTokenId",
              "type": "uint256"
            }
          ],
          "internalType": "struct MyEpicGame.Player[]",
          "name": "",
          "type": "tuple[]"
        }
      ],
      "stateMutability": "view",
      "type": "function"
    },
    {
      "inputs": [
        {
          "internalType": "uint256",
          "name": "tokenId",
          "type": "uint256"
        }
      ],
      "name": "getApproved",
      "outputs": [
        {
          "internalType": "address",
          "name": "",
          "type": "address"
        }
      ],
      "stateMutability": "view",
      "type": "function"
    },
    {
      "inputs": [],
      "name": "getBigBoss",
      "outputs": [
        {
          "components": [
            {
              "internalType": "string",
              "name": "name",
              "type": "string"
            },
            {
              "internalType": "string",
              "name": "imageURI",
              "type": "string"
            },
            {
              "internalType": "uint256",
              "name": "hp",
              "type": "uint256"
            },
            {
              "internalType": "uint256",
              "name": "maxHp",
              "type": "uint256"
            },
            {
              "internalType": "uint256",
              "name": "attackDamage",
              "type": "uint256"
            }
          ],
          "internalType": "struct MyEpicGame.BigBoss",
          "name": "",
          "type": "tuple"
        }
      ],
      "stateMutability": "view",
      "type": "function"
    },
    {
      "inputs": [
        {
          "internalType": "address",
          "name": "owner",
          "type": "address"
        },
        {
          "internalType": "address",
          "name": "operator",
          "type": "address"
        }
      ],
      "name": "isApprovedForAll",
      "outputs": [
        {
          "internalType": "bool",
          "name": "",
          "type": "bool"
        }
      ],
      "stateMutability": "view",
      "type": "function"
    },
    {
      "inputs": [
        {
          "internalType": "uint256",
          "name": "_characterIndex",
          "type": "uint256"
        }
      ],
      "name": "mintCharacterNFT",
      "outputs": [],
      "stateMutability": "nonpayable",
      "type": "function"
    },
    {
      "inputs": [],
      "name": "name",
      "outputs": [
        {
          "internalType": "string",
          "name": "",
          "type": "string"
        }
      ],
      "stateMutability": "view",
      "type": "function"
    },
    {
      "inputs": [
        {
          "internalType": "uint256",
          "name": "",
          "type": "uint256"
        }
      ],
      "name": "nftHolderAttributes",
      "outputs": [
        {
          "internalType": "uint256",
          "name": "characterIndex",
          "type": "uint256"
        },
        {
          "internalType": "string",
          "name": "name",
          "type": "string"
        },
        {
          "internalType": "string",
          "name": "imageURI",
          "type": "string"
        },
        {
          "internalType": "uint256",
          "name": "hp",
          "type": "uint256"
        },
        {
          "internalType": "uint256",
          "name": "maxHp",
          "type": "uint256"
        },
        {
          "internalType": "uint256",
          "name": "attackDamage",
          "type": "uint256"
        }
      ],
      "stateMutability": "view",
      "type": "function"
    },
    {
      "inputs": [
        {
          "internalType": "address",
          "name": "",
          "type": "address"
        }
      ],
      "name": "nftHolders",
      "outputs": [
        {
          "internalType": "uint256",
          "name": "",
          "type": "uint256"
        }
      ],
      "stateMutability": "view",
      "type": "function"
    },
    {
      "inputs": [
        {
          "internalType": "uint256",
          "name": "tokenId",
          "type": "uint256"
        }
      ],
      "name": "ownerOf",
      "outputs": [
        {
          "internalType": "address",
          "name": "",
          "type": "address"
        }
      ],
      "stateMutability": "view",
      "type": "function"
    },
    {
      "inputs": [
        {
          "internalType": "address",
          "name": "from",
          "type": "address"
        },
        {
          "internalType": "address",
          "name": "to",
          "type": "address"
        },
        {
          "internalType": "uint256",
          "name": "tokenId",
          "type": "uint256"
        }
      ],
      "name": "safeTransferFrom",
      "outputs": [],
      "stateMutability": "nonpayable",
      "type": "function"
    },
    {
      "inputs": [
        {
          "internalType": "address",
          "name": "from",
          "type": "address"
        },
        {
          "internalType": "address",
          "name": "to",
          "type": "address"
        },
        {
          "internalType": "uint256",
          "name": "tokenId",
          "type": "uint256"
        },
        {
          "internalType": "bytes",
          "name": "_data",
          "type": "bytes"
        }
      ],
      "name": "safeTransferFrom",
      "outputs": [],
      "stateMutability": "nonpayable",
      "type": "function"
    },
    {
      "inputs": [
        {
          "internalType": "address",
          "name": "operator",
          "type": "address"
        },
        {
          "internalType": "bool",
          "name": "approved",
          "type": "bool"
        }
      ],
      "name": "setApprovalForAll",
      "outputs": [],
      "stateMutability": "nonpayable",
      "type": "function"
    },
    {
      "inputs": [
        {
          "internalType": "bytes4",
          "name": "interfaceId",
          "type": "bytes4"
        }
      ],
      "name": "supportsInterface",
      "outputs": [
        {
          "internalType": "bool",
          "name": "",
          "type": "bool"
        }
      ],
      "stateMutability": "view",
      "type": "function"
    },
    {
      "inputs": [],
      "name": "symbol",
      "outputs": [
        {
          "internalType": "string",
          "name": "",
          "type": "string"
        }
      ],
      "stateMutability": "view",
      "type": "function"
    },
    {
      "inputs": [
        {
          "internalType": "uint256",
          "name": "_tokenId",
          "type": "uint256"
        }
      ],
      "name": "tokenURI",
      "outputs": [
        {
          "internalType": "string",
          "name": "",
          "type": "string"
        }
      ],
      "stateMutability": "view",
      "type": "function"
    },
    {
      "inputs": [
        {
          "internalType": "address",
          "name": "from",
          "type": "address"
        },
        {
          "internalType": "address",
          "name": "to",
          "type": "address"
        },
        {
          "internalType": "uint256",
          "name": "tokenId",
          "type": "uint256"
        }
      ],
      "name": "transferFrom",
      "outputs": [],
      "stateMutability": "nonpayable",
      "type": "function"
    }
  ],
  "bytecode": "0x60806040523480156200001157600080fd5b50604051620059bd380380620059bd833981810160405281019062000037919062000a5a565b6040518060400160405280600a81526020017f436f6e74656e64657273000000000000000000000000000000000000000000008152506040518060400160405280600981526020017f434f4e54454e44455200000000000000000000000000000000000000000000008152508160009080519060200190620000bb929190620007ed565b508060019080519060200190620000d4929190620007ed565b5050506040518060a0016040528085815260200184815260200183815260200183815260200182815250600b60008201518160000190805190602001906200011e929190620007ed565b5060208201518160010190805190602001906200013d929190620007ed565b50604082015181600201556060820151816003015560808201518160040155905050620002c06040518060600160405280602a815260200162005993602a9139600b60000180546200018f9062000de5565b80601f0160208091040260200160405190810160405280929190818152602001828054620001bd9062000de5565b80156200020e5780601f10620001e2576101008083540402835291602001916200020e565b820191906000526020600020905b815481529060010190602001808311620001f057829003601f168201915b5050505050600b60020154600b60010180546200022b9062000de5565b80601f0160208091040260200160405190810160405280929190818152602001828054620002599062000de5565b8015620002aa5780601f106200027e57610100808354040283529160200191620002aa565b820191906000526020600020905b8154815290600101906020018083116200028c57829003601f168201915b50505050506200070260201b62001ed11760201c565b60005b8851811015620006dc5760066040518060c001604052808381526020018b84815181106200031a577f4e487b7100000000000000000000000000000000000000000000000000000000600052603260045260246000fd5b602002602001015181526020018a848151811062000361577f4e487b7100000000000000000000000000000000000000000000000000000000600052603260045260246000fd5b60200260200101518152602001898481518110620003a8577f4e487b7100000000000000000000000000000000000000000000000000000000600052603260045260246000fd5b60200260200101518152602001898481518110620003ef577f4e487b7100000000000000000000000000000000000000000000000000000000600052603260045260246000fd5b6020026020010151815260200188848151811062000436577f4e487b7100000000000000000000000000000000000000000000000000000000600052603260045260246000fd5b6020026020010151815250908060018154018082558091505060019003906000526020600020906006020160009091909190915060008201518160000155602082015181600101908051906020019062000492929190620007ed565b506040820151816002019080519060200190620004b1929190620007ed565b50606082015181600301556080820151816004015560a0820151816005015550506000600682815481106200050f577f4e487b7100000000000000000000000000000000000000000000000000000000600052603260045260246000fd5b90600052602060002090600602016040518060c001604052908160008201548152602001600182018054620005449062000de5565b80601f0160208091040260200160405190810160405280929190818152602001828054620005729062000de5565b8015620005c35780601f106200059757610100808354040283529160200191620005c3565b820191906000526020600020905b815481529060010190602001808311620005a557829003601f168201915b50505050508152602001600282018054620005de9062000de5565b80601f01602080910402602001604051908101604052809291908181526020018280546200060c9062000de5565b80156200065d5780601f1062000631576101008083540402835291602001916200065d565b820191906000526020600020905b8154815290600101906020018083116200063f57829003601f168201915b5050505050815260200160038201548152602001600482015481526020016005820154815250509050620006c46040518060600160405280602581526020016200596e602591398260200151836060015184604001516200070260201b62001ed11760201c565b50600181620006d4919062000d48565b9050620002c3565b50620006f46008620007ae60201b62001f731760201c565b505050505050505062000ed3565b620007a8848484846040516024016200071f949392919062000c05565b6040516020818303038152906040527f8d142cdd000000000000000000000000000000000000000000000000000000007bffffffffffffffffffffffffffffffffffffffffffffffffffffffff19166020820180517bffffffffffffffffffffffffffffffffffffffffffffffffffffffff8381831617835250505050620007c460201b60201c565b50505050565b6001816000016000828254019250508190555050565b60008151905060006a636f6e736f6c652e6c6f679050602083016000808483855afa5050505050565b828054620007fb9062000de5565b90600052602060002090601f0160209004810192826200081f57600085556200086b565b82601f106200083a57805160ff19168380011785556200086b565b828001600101855582156200086b579182015b828111156200086a5782518255916020019190600101906200084d565b5b5090506200087a91906200087e565b5090565b5b80821115620008995760008160009055506001016200087f565b5090565b6000620008b4620008ae8462000c9b565b62000c67565b9050808382526020820190508260005b85811015620008f85781518501620008dd888262000a16565b845260208401935060208301925050600181019050620008c4565b5050509392505050565b600062000919620009138462000cca565b62000c67565b905080838252602082019050828560208602820111156200093957600080fd5b60005b858110156200096d578162000952888262000a43565b8452602084019350602083019250506001810190506200093c565b5050509392505050565b60006200098e620009888462000cf9565b62000c67565b905082815260208101848484011115620009a757600080fd5b620009b484828562000daf565b509392505050565b600082601f830112620009ce57600080fd5b8151620009e08482602086016200089d565b91505092915050565b600082601f830112620009fb57600080fd5b815162000a0d84826020860162000902565b91505092915050565b600082601f83011262000a2857600080fd5b815162000a3a84826020860162000977565b91505092915050565b60008151905062000a548162000eb9565b92915050565b600080600080600080600080610100898b03121562000a7857600080fd5b600089015167ffffffffffffffff81111562000a9357600080fd5b62000aa18b828c01620009bc565b985050602089015167ffffffffffffffff81111562000abf57600080fd5b62000acd8b828c01620009bc565b975050604089015167ffffffffffffffff81111562000aeb57600080fd5b62000af98b828c01620009e9565b965050606089015167ffffffffffffffff81111562000b1757600080fd5b62000b258b828c01620009e9565b955050608089015167ffffffffffffffff81111562000b4357600080fd5b62000b518b828c0162000a16565b94505060a089015167ffffffffffffffff81111562000b6f57600080fd5b62000b7d8b828c0162000a16565b93505060c062000b908b828c0162000a43565b92505060e062000ba38b828c0162000a43565b9150509295985092959890939650565b600062000bc08262000d2c565b62000bcc818562000d37565b935062000bde81856020860162000daf565b62000be98162000ea8565b840191505092915050565b62000bff8162000da5565b82525050565b6000608082019050818103600083015262000c21818762000bb3565b9050818103602083015262000c37818662000bb3565b905062000c48604083018562000bf4565b818103606083015262000c5c818462000bb3565b905095945050505050565b6000604051905081810181811067ffffffffffffffff8211171562000c915762000c9062000e79565b5b8060405250919050565b600067ffffffffffffffff82111562000cb95762000cb862000e79565b5b602082029050602081019050919050565b600067ffffffffffffffff82111562000ce85762000ce762000e79565b5b602082029050602081019050919050565b600067ffffffffffffffff82111562000d175762000d1662000e79565b5b601f19601f8301169050602081019050919050565b600081519050919050565b600082825260208201905092915050565b600062000d558262000da5565b915062000d628362000da5565b9250827fffffffffffffffffffffffffffffffffffffffffffffffffffffffffffffffff0382111562000d9a5762000d9962000e1b565b5b828201905092915050565b6000819050919050565b60005b8381101562000dcf57808201518184015260208101905062000db2565b8381111562000ddf576000848401525b50505050565b6000600282049050600182168062000dfe57607f821691505b6020821081141562000e155762000e1462000e4a565b5b50919050565b7f4e487b7100000000000000000000000000000000000000000000000000000000600052601160045260246000fd5b7f4e487b7100000000000000000000000000000000000000000000000000000000600052602260045260246000fd5b7f4e487b7100000000000000000000000000000000000000000000000000000000600052604160045260246000fd5b6000601f19601f8301169050919050565b62000ec48162000da5565b811462000ed057600080fd5b50565b614a8b8062000ee36000396000f3fe608060405234801561001057600080fd5b50600436106101425760003560e01c806398da4c95116100b8578063c87b56dd1161007c578063c87b56dd14610392578063c8cf27f4146103c2578063d4f24c5b146103e0578063e985e9c5146103ea578063efa1c4821461041a578063f8b81ef71461043857610142565b806398da4c95146102e5578063a22cb4651461031a578063a9c3267914610336578063b88d4fde14610358578063b953084e1461037457610142565b806323b872dd1161010a57806323b872dd146101ff57806342842e0e1461021b5780636352211e1461023757806370a08231146102675780637df124a11461029757806395d89b41146102c757610142565b806301ffc9a7146101475780630665f9611461017757806306fdde0314610195578063081812fc146101b3578063095ea7b3146101e3575b600080fd5b610161600480360381019061015c91906131ab565b610454565b60405161016e9190614007565b60405180910390f35b61017f610536565b60405161018c91906143a0565b60405180910390f35b61019d610692565b6040516101aa9190614022565b60405180910390f35b6101cd60048036038101906101c891906131fd565b610724565b6040516101da9190613f25565b60405180910390f35b6101fd60048036038101906101f8919061316f565b6107a9565b005b61021960048036038101906102149190613069565b6108c1565b005b61023560048036038101906102309190613069565b610921565b005b610251600480360381019061024c91906131fd565b610941565b60405161025e9190613f25565b60405180910390f35b610281600480360381019061027c9190613004565b6109f3565b60405161028e91906143e4565b60405180910390f35b6102b160048036038101906102ac9190613004565b610aab565b6040516102be91906143e4565b60405180910390f35b6102cf610ac3565b6040516102dc9190614022565b60405180910390f35b6102ff60048036038101906102fa91906131fd565b610b55565b604051610311969594939291906143ff565b60405180910390f35b610334600480360381019061032f9190613133565b610ca1565b005b61033e610e22565b60405161034f9594939291906140f1565b60405180910390f35b610372600480360381019061036d91906130b8565b610f56565b005b61037c610fb8565b6040516103899190613fc3565b60405180910390f35b6103ac60048036038101906103a791906131fd565b611163565b6040516103b99190614022565b60405180910390f35b6103ca61137e565b6040516103d791906143c2565b60405180910390f35b6103e8611556565b005b61040460048036038101906103ff919061302d565b6118e1565b6040516104119190614007565b60405180910390f35b610422611975565b60405161042f9190613fe5565b60405180910390f35b610452600480360381019061044d91906131fd565b611a34565b005b60007f80ac58cd000000000000000000000000000000000000000000000000000000007bffffffffffffffffffffffffffffffffffffffffffffffffffffffff1916827bffffffffffffffffffffffffffffffffffffffffffffffffffffffff1916148061051f57507f5b5e139f000000000000000000000000000000000000000000000000000000007bffffffffffffffffffffffffffffffffffffffffffffffffffffffff1916827bffffffffffffffffffffffffffffffffffffffffffffffffffffffff1916145b8061052f575061052e82611f89565b5b9050919050565b61053e612e2b565b600b6040518060a001604052908160008201805461055b90614789565b80601f016020809104026020016040519081016040528092919081815260200182805461058790614789565b80156105d45780601f106105a9576101008083540402835291602001916105d4565b820191906000526020600020905b8154815290600101906020018083116105b757829003601f168201915b505050505081526020016001820180546105ed90614789565b80601f016020809104026020016040519081016040528092919081815260200182805461061990614789565b80156106665780601f1061063b57610100808354040283529160200191610666565b820191906000526020600020905b81548152906001019060200180831161064957829003601f168201915b505050505081526020016002820154815260200160038201548152602001600482015481525050905090565b6060600080546106a190614789565b80601f01602080910402602001604051908101604052809291908181526020018280546106cd90614789565b801561071a5780601f106106ef5761010080835404028352916020019161071a565b820191906000526020600020905b8154815290600101906020018083116106fd57829003601f168201915b5050505050905090565b600061072f82611ff3565b61076e576040517f08c379a000000000000000000000000000000000000000000000000000000000815260040161076590614320565b60405180910390fd5b6004600083815260200190815260200160002060009054906101000a900473ffffffffffffffffffffffffffffffffffffffff169050919050565b60006107b482610941565b90508073ffffffffffffffffffffffffffffffffffffffff168373ffffffffffffffffffffffffffffffffffffffff161415610825576040517f08c379a000000000000000000000000000000000000000000000000000000000815260040161081c90614360565b60405180910390fd5b8073ffffffffffffffffffffffffffffffffffffffff1661084461205f565b73ffffffffffffffffffffffffffffffffffffffff16148061087357506108728161086d61205f565b6118e1565b5b6108b2576040517f08c379a00000000000000000000000000000000000000000000000000000000081526004016108a990614280565b60405180910390fd5b6108bc8383612067565b505050565b6108d26108cc61205f565b82612120565b610911576040517f08c379a000000000000000000000000000000000000000000000000000000000815260040161090890614380565b60405180910390fd5b61091c8383836121fe565b505050565b61093c83838360405180602001604052806000815250610f56565b505050565b6000806002600084815260200190815260200160002060009054906101000a900473ffffffffffffffffffffffffffffffffffffffff169050600073ffffffffffffffffffffffffffffffffffffffff168173ffffffffffffffffffffffffffffffffffffffff1614156109ea576040517f08c379a00000000000000000000000000000000000000000000000000000000081526004016109e1906142c0565b60405180910390fd5b80915050919050565b60008073ffffffffffffffffffffffffffffffffffffffff168273ffffffffffffffffffffffffffffffffffffffff161415610a64576040517f08c379a0000000000000000000000000000000000000000000000000000000008152600401610a5b906142a0565b60405180910390fd5b600360008373ffffffffffffffffffffffffffffffffffffffff1673ffffffffffffffffffffffffffffffffffffffff168152602001908152602001600020549050919050565b600a6020528060005260406000206000915090505481565b606060018054610ad290614789565b80601f0160208091040260200160405190810160405280929190818152602001828054610afe90614789565b8015610b4b5780601f10610b2057610100808354040283529160200191610b4b565b820191906000526020600020905b815481529060010190602001808311610b2e57829003601f168201915b5050505050905090565b6009602052806000526040600020600091509050806000015490806001018054610b7e90614789565b80601f0160208091040260200160405190810160405280929190818152602001828054610baa90614789565b8015610bf75780601f10610bcc57610100808354040283529160200191610bf7565b820191906000526020600020905b815481529060010190602001808311610bda57829003601f168201915b505050505090806002018054610c0c90614789565b80601f0160208091040260200160405190810160405280929190818152602001828054610c3890614789565b8015610c855780601f10610c5a57610100808354040283529160200191610c85565b820191906000526020600020905b815481529060010190602001808311610c6857829003601f168201915b5050505050908060030154908060040154908060050154905086565b610ca961205f565b73ffffffffffffffffffffffffffffffffffffffff168273ffffffffffffffffffffffffffffffffffffffff161415610d17576040517f08c379a0000000000000000000000000000000000000000000000000000000008152600401610d0e90614240565b60405180910390fd5b8060056000610d2461205f565b73ffffffffffffffffffffffffffffffffffffffff1673ffffffffffffffffffffffffffffffffffffffff16815260200190815260200160002060008473ffffffffffffffffffffffffffffffffffffffff1673ffffffffffffffffffffffffffffffffffffffff16815260200190815260200160002060006101000a81548160ff0219169083151502179055508173ffffffffffffffffffffffffffffffffffffffff16610dd161205f565b73ffffffffffffffffffffffffffffffffffffffff167f17307eab39ab6107e8899845ad3d59bd9653f200f220920489ca2b5937696c3183604051610e169190614007565b60405180910390a35050565b600b806000018054610e3390614789565b80601f0160208091040260200160405190810160405280929190818152602001828054610e5f90614789565b8015610eac5780601f10610e8157610100808354040283529160200191610eac565b820191906000526020600020905b815481529060010190602001808311610e8f57829003601f168201915b505050505090806001018054610ec190614789565b80601f0160208091040260200160405190810160405280929190818152602001828054610eed90614789565b8015610f3a5780601f10610f0f57610100808354040283529160200191610f3a565b820191906000526020600020905b815481529060010190602001808311610f1d57829003601f168201915b5050505050908060020154908060030154908060040154905085565b610f67610f6161205f565b83612120565b610fa6576040517f08c379a0000000000000000000000000000000000000000000000000000000008152600401610f9d90614380565b60405180910390fd5b610fb28484848461245a565b50505050565b60606006805480602002602001604051908101604052809291908181526020016000905b8282101561115a57838290600052602060002090600602016040518060c00160405290816000820154815260200160018201805461101990614789565b80601f016020809104026020016040519081016040528092919081815260200182805461104590614789565b80156110925780601f1061106757610100808354040283529160200191611092565b820191906000526020600020905b81548152906001019060200180831161107557829003601f168201915b505050505081526020016002820180546110ab90614789565b80601f01602080910402602001604051908101604052809291908181526020018280546110d790614789565b80156111245780601f106110f957610100808354040283529160200191611124565b820191906000526020600020905b81548152906001019060200180831161110757829003601f168201915b50505050508152602001600382015481526020016004820154815260200160058201548152505081526020019060010190610fdc565b50505050905090565b60606000600960008481526020019081526020016000206040518060c00160405290816000820154815260200160018201805461119f90614789565b80601f01602080910402602001604051908101604052809291908181526020018280546111cb90614789565b80156112185780601f106111ed57610100808354040283529160200191611218565b820191906000526020600020905b8154815290600101906020018083116111fb57829003601f168201915b5050505050815260200160028201805461123190614789565b80601f016020809104026020016040519081016040528092919081815260200182805461125d90614789565b80156112aa5780601f1061127f576101008083540402835291602001916112aa565b820191906000526020600020905b81548152906001019060200180831161128d57829003601f168201915b505050505081526020016003820154815260200160048201548152602001600582015481525050905060006112e282606001516124b6565b905060006112f383608001516124b6565b905060006113048460a001516124b6565b9050600061134a8560200151611319896124b6565b876040015187878760405160200161133696959493929190613e5e565b604051602081830303815290604052612663565b905060008160405160200161135f9190613f03565b6040516020818303038152906040529050809650505050505050919050565b611386612e5a565b6000600a60003373ffffffffffffffffffffffffffffffffffffffff1673ffffffffffffffffffffffffffffffffffffffff168152602001908152602001600020549050600081111561154557600960008281526020019081526020016000206040518060c00160405290816000820154815260200160018201805461140b90614789565b80601f016020809104026020016040519081016040528092919081815260200182805461143790614789565b80156114845780601f1061145957610100808354040283529160200191611484565b820191906000526020600020905b81548152906001019060200180831161146757829003601f168201915b5050505050815260200160028201805461149d90614789565b80601f01602080910402602001604051908101604052809291908181526020018280546114c990614789565b80156115165780601f106114eb57610100808354040283529160200191611516565b820191906000526020600020905b8154815290600101906020018083116114f957829003601f168201915b505050505081526020016003820154815260200160048201548152602001600582015481525050915050611553565b61154d612e5a565b80925050505b90565b6000600a60003373ffffffffffffffffffffffffffffffffffffffff1673ffffffffffffffffffffffffffffffffffffffff16815260200190815260200160002054905060006009600083815260200190815260200160002090506116696040518060600160405280603c8152602001614a1a603c91398260010180546115dc90614789565b80601f016020809104026020016040519081016040528092919081815260200182805461160890614789565b80156116555780601f1061162a57610100808354040283529160200191611655565b820191906000526020600020905b81548152906001019060200180831161163857829003601f168201915b505050505083600301548460050154612821565b6117416040518060400160405280601b81526020017f426f73732025732068617320257320485020616e642025732041440000000000815250600b60000180546116b290614789565b80601f01602080910402602001604051908101604052809291908181526020018280546116de90614789565b801561172b5780601f106117005761010080835404028352916020019161172b565b820191906000526020600020905b81548152906001019060200180831161170e57829003601f168201915b5050505050600b60020154600b60040154612821565b6000816003015411611788576040517f08c379a000000000000000000000000000000000000000000000000000000000815260040161177f906142e0565b60405180910390fd5b6000600b60020154116117d0576040517f08c379a00000000000000000000000000000000000000000000000000000000081526004016117c7906141e0565b60405180910390fd5b8060050154600b6002015410156117f1576000600b60020181905550611810565b8060050154600b60020154611806919061469f565b600b600201819055505b61183760405180606001604052806025815260200161495f60259139600b600201546128c3565b600b60040154816003015410156118575760008160030181905550611875565b600b60040154816003015461186c919061469f565b81600301819055505b61189b6040518060600160405280602881526020016149c46028913982600301546128c3565b7f838ab28464562786a6c4ab2311964b82fa60bd9b14aa7e856af1f3f18d41a414600b6002015482600301546040516118d592919061446e565b60405180910390a15050565b6000600560008473ffffffffffffffffffffffffffffffffffffffff1673ffffffffffffffffffffffffffffffffffffffff16815260200190815260200160002060008373ffffffffffffffffffffffffffffffffffffffff1673ffffffffffffffffffffffffffffffffffffffff16815260200190815260200160002060009054906101000a900460ff16905092915050565b60606007805480602002602001604051908101604052809291908181526020016000905b82821015611a2b57838290600052602060002090600202016040518060400160405290816000820160009054906101000a900473ffffffffffffffffffffffffffffffffffffffff1673ffffffffffffffffffffffffffffffffffffffff1673ffffffffffffffffffffffffffffffffffffffff16815260200160018201548152505081526020019060010190611999565b50505050905090565b6000611a40600861295f565b9050611a4c338261296d565b6040518060c0016040528083815260200160068481548110611a97577f4e487b7100000000000000000000000000000000000000000000000000000000600052603260045260246000fd5b90600052602060002090600602016001018054611ab390614789565b80601f0160208091040260200160405190810160405280929190818152602001828054611adf90614789565b8015611b2c5780601f10611b0157610100808354040283529160200191611b2c565b820191906000526020600020905b815481529060010190602001808311611b0f57829003601f168201915b5050505050815260200160068481548110611b70577f4e487b7100000000000000000000000000000000000000000000000000000000600052603260045260246000fd5b90600052602060002090600602016002018054611b8c90614789565b80601f0160208091040260200160405190810160405280929190818152602001828054611bb890614789565b8015611c055780601f10611bda57610100808354040283529160200191611c05565b820191906000526020600020905b815481529060010190602001808311611be857829003601f168201915b5050505050815260200160068481548110611c49577f4e487b7100000000000000000000000000000000000000000000000000000000600052603260045260246000fd5b906000526020600020906006020160030154815260200160068481548110611c9a577f4e487b7100000000000000000000000000000000000000000000000000000000600052603260045260246000fd5b906000526020600020906006020160030154815260200160068481548110611ceb577f4e487b7100000000000000000000000000000000000000000000000000000000600052603260045260246000fd5b90600052602060002090600602016005015481525060096000838152602001908152602001600020600082015181600001556020820151816001019080519060200190611d39929190612e90565b506040820151816002019080519060200190611d56929190612e90565b50606082015181600301556080820151816004015560a08201518160050155905050611d9b6040518060600160405280602e81526020016149ec602e9139828461298b565b80600a60003373ffffffffffffffffffffffffffffffffffffffff1673ffffffffffffffffffffffffffffffffffffffff16815260200190815260200160002081905550611de96008611f73565b600760405180604001604052803373ffffffffffffffffffffffffffffffffffffffff16815260200183815250908060018154018082558091505060019003906000526020600020906002020160009091909190915060008201518160000160006101000a81548173ffffffffffffffffffffffffffffffffffffffff021916908373ffffffffffffffffffffffffffffffffffffffff1602179055506020820151816001015550507f4bc303fd457a97b4691b9af582ce71868a3d258638c8d4f8c60988a0f0bfb8cd338284604051611ec593929190613f8c565b60405180910390a15050565b611f6d84848484604051602401611eeb9493929190614044565b6040516020818303038152906040527f8d142cdd000000000000000000000000000000000000000000000000000000007bffffffffffffffffffffffffffffffffffffffffffffffffffffffff19166020820180517bffffffffffffffffffffffffffffffffffffffffffffffffffffffff8381831617835250505050612a2a565b50505050565b6001816000016000828254019250508190555050565b60007f01ffc9a7000000000000000000000000000000000000000000000000000000007bffffffffffffffffffffffffffffffffffffffffffffffffffffffff1916827bffffffffffffffffffffffffffffffffffffffffffffffffffffffff1916149050919050565b60008073ffffffffffffffffffffffffffffffffffffffff166002600084815260200190815260200160002060009054906101000a900473ffffffffffffffffffffffffffffffffffffffff1673ffffffffffffffffffffffffffffffffffffffff1614159050919050565b600033905090565b816004600083815260200190815260200160002060006101000a81548173ffffffffffffffffffffffffffffffffffffffff021916908373ffffffffffffffffffffffffffffffffffffffff160217905550808273ffffffffffffffffffffffffffffffffffffffff166120da83610941565b73ffffffffffffffffffffffffffffffffffffffff167f8c5be1e5ebec7d5bd14f71427d1e84f3dd0314c0f7b2291e5b200ac8c7c3b92560405160405180910390a45050565b600061212b82611ff3565b61216a576040517f08c379a000000000000000000000000000000000000000000000000000000000815260040161216190614260565b60405180910390fd5b600061217583610941565b90508073ffffffffffffffffffffffffffffffffffffffff168473ffffffffffffffffffffffffffffffffffffffff1614806121e457508373ffffffffffffffffffffffffffffffffffffffff166121cc84610724565b73ffffffffffffffffffffffffffffffffffffffff16145b806121f557506121f481856118e1565b5b91505092915050565b8273ffffffffffffffffffffffffffffffffffffffff1661221e82610941565b73ffffffffffffffffffffffffffffffffffffffff1614612274576040517f08c379a000000000000000000000000000000000000000000000000000000000815260040161226b90614340565b60405180910390fd5b600073ffffffffffffffffffffffffffffffffffffffff168273ffffffffffffffffffffffffffffffffffffffff1614156122e4576040517f08c379a00000000000000000000000000000000000000000000000000000000081526004016122db90614220565b60405180910390fd5b6122ef838383612a53565b6122fa600082612067565b6001600360008573ffffffffffffffffffffffffffffffffffffffff1673ffffffffffffffffffffffffffffffffffffffff168152602001908152602001600020600082825461234a919061469f565b925050819055506001600360008473ffffffffffffffffffffffffffffffffffffffff1673ffffffffffffffffffffffffffffffffffffffff16815260200190815260200160002060008282546123a191906145be565b92505081905550816002600083815260200190815260200160002060006101000a81548173ffffffffffffffffffffffffffffffffffffffff021916908373ffffffffffffffffffffffffffffffffffffffff160217905550808273ffffffffffffffffffffffffffffffffffffffff168473ffffffffffffffffffffffffffffffffffffffff167fddf252ad1be2c89b69c2b068fc378daa952ba7f163c4a11628f55a4df523b3ef60405160405180910390a4505050565b6124658484846121fe565b61247184848484612a58565b6124b0576040517f08c379a00000000000000000000000000000000000000000000000000000000081526004016124a7906141c0565b60405180910390fd5b50505050565b606060008214156124fe576040518060400160405280600181526020017f3000000000000000000000000000000000000000000000000000000000000000815250905061265e565b600082905060005b60008214612530578080612519906147bb565b915050600a826125299190614614565b9150612506565b60008167ffffffffffffffff811115612572577f4e487b7100000000000000000000000000000000000000000000000000000000600052604160045260246000fd5b6040519080825280601f01601f1916602001820160405280156125a45781602001600182028036833780820191505090505b5090505b60008514612657576001826125bd919061469f565b9150600a856125cc9190614804565b60306125d891906145be565b60f81b818381518110612614577f4e487b7100000000000000000000000000000000000000000000000000000000600052603260045260246000fd5b60200101907effffffffffffffffffffffffffffffffffffffffffffffffffffffffffffff1916908160001a905350600a856126509190614614565b94506125a8565b8093505050505b919050565b6060600082519050600081141561268c576040518060200160405280600081525091505061281c565b6000600360028361269d91906145be565b6126a79190614614565b60046126b39190614645565b905060006020826126c491906145be565b67ffffffffffffffff811115612703577f4e487b7100000000000000000000000000000000000000000000000000000000600052604160045260246000fd5b6040519080825280601f01601f1916602001820160405280156127355781602001600182028036833780820191505090505b5090506000604051806060016040528060408152602001614984604091399050600181016020830160005b868110156127d95760038101905062ffffff818a015116603f8160121c168401518060081b905060ff603f83600c1c1686015116810190508060081b905060ff603f8360061c1686015116810190508060081b905060ff603f831686015116810190508060e01b90508084526004840193505050612760565b5060038606600181146127f357600281146128035761280e565b613d3d60f01b600283035261280e565b603d60f81b60018303525b508484525050819450505050505b919050565b6128bd8484848460405160240161283b949392919061409e565b6040516020818303038152906040527fd5cf17d0000000000000000000000000000000000000000000000000000000007bffffffffffffffffffffffffffffffffffffffffffffffffffffffff19166020820180517bffffffffffffffffffffffffffffffffffffffffffffffffffffffff8381831617835250505050612a2a565b50505050565b61295b82826040516024016128d9929190614152565b6040516020818303038152906040527f9710a9d0000000000000000000000000000000000000000000000000000000007bffffffffffffffffffffffffffffffffffffffffffffffffffffffff19166020820180517bffffffffffffffffffffffffffffffffffffffffffffffffffffffff8381831617835250505050612a2a565b5050565b600081600001549050919050565b612987828260405180602001604052806000815250612bef565b5050565b612a258383836040516024016129a393929190614182565b6040516020818303038152906040527f969cdd03000000000000000000000000000000000000000000000000000000007bffffffffffffffffffffffffffffffffffffffffffffffffffffffff19166020820180517bffffffffffffffffffffffffffffffffffffffffffffffffffffffff8381831617835250505050612a2a565b505050565b60008151905060006a636f6e736f6c652e6c6f679050602083016000808483855afa5050505050565b505050565b6000612a798473ffffffffffffffffffffffffffffffffffffffff16612c4a565b15612be2578373ffffffffffffffffffffffffffffffffffffffff1663150b7a02612aa261205f565b8786866040518563ffffffff1660e01b8152600401612ac49493929190613f40565b602060405180830381600087803b158015612ade57600080fd5b505af1925050508015612b0f57506040513d601f19601f82011682018060405250810190612b0c91906131d4565b60015b612b92573d8060008114612b3f576040519150601f19603f3d011682016040523d82523d6000602084013e612b44565b606091505b50600081511415612b8a576040517f08c379a0000000000000000000000000000000000000000000000000000000008152600401612b81906141c0565b60405180910390fd5b805181602001fd5b63150b7a0260e01b7bffffffffffffffffffffffffffffffffffffffffffffffffffffffff1916817bffffffffffffffffffffffffffffffffffffffffffffffffffffffff191614915050612be7565b600190505b949350505050565b612bf98383612c5d565b612c066000848484612a58565b612c45576040517f08c379a0000000000000000000000000000000000000000000000000000000008152600401612c3c906141c0565b60405180910390fd5b505050565b600080823b905060008111915050919050565b600073ffffffffffffffffffffffffffffffffffffffff168273ffffffffffffffffffffffffffffffffffffffff161415612ccd576040517f08c379a0000000000000000000000000000000000000000000000000000000008152600401612cc490614300565b60405180910390fd5b612cd681611ff3565b15612d16576040517f08c379a0000000000000000000000000000000000000000000000000000000008152600401612d0d90614200565b60405180910390fd5b612d2260008383612a53565b6001600360008473ffffffffffffffffffffffffffffffffffffffff1673ffffffffffffffffffffffffffffffffffffffff1681526020019081526020016000206000828254612d7291906145be565b92505081905550816002600083815260200190815260200160002060006101000a81548173ffffffffffffffffffffffffffffffffffffffff021916908373ffffffffffffffffffffffffffffffffffffffff160217905550808273ffffffffffffffffffffffffffffffffffffffff16600073ffffffffffffffffffffffffffffffffffffffff167fddf252ad1be2c89b69c2b068fc378daa952ba7f163c4a11628f55a4df523b3ef60405160405180910390a45050565b6040518060a0016040528060608152602001606081526020016000815260200160008152602001600081525090565b6040518060c001604052806000815260200160608152602001606081526020016000815260200160008152602001600081525090565b828054612e9c90614789565b90600052602060002090601f016020900481019282612ebe5760008555612f05565b82601f10612ed757805160ff1916838001178555612f05565b82800160010185558215612f05579182015b82811115612f04578251825591602001919060010190612ee9565b5b509050612f129190612f16565b5090565b5b80821115612f2f576000816000905550600101612f17565b5090565b6000612f46612f41846144c8565b614497565b905082815260208101848484011115612f5e57600080fd5b612f69848285614747565b509392505050565b600081359050612f8081614902565b92915050565b600081359050612f9581614919565b92915050565b600081359050612faa81614930565b92915050565b600081519050612fbf81614930565b92915050565b600082601f830112612fd657600080fd5b8135612fe6848260208601612f33565b91505092915050565b600081359050612ffe81614947565b92915050565b60006020828403121561301657600080fd5b600061302484828501612f71565b91505092915050565b6000806040838503121561304057600080fd5b600061304e85828601612f71565b925050602061305f85828601612f71565b9150509250929050565b60008060006060848603121561307e57600080fd5b600061308c86828701612f71565b935050602061309d86828701612f71565b92505060406130ae86828701612fef565b9150509250925092565b600080600080608085870312156130ce57600080fd5b60006130dc87828801612f71565b94505060206130ed87828801612f71565b93505060406130fe87828801612fef565b925050606085013567ffffffffffffffff81111561311b57600080fd5b61312787828801612fc5565b91505092959194509250565b6000806040838503121561314657600080fd5b600061315485828601612f71565b925050602061316585828601612f86565b9150509250929050565b6000806040838503121561318257600080fd5b600061319085828601612f71565b92505060206131a185828601612fef565b9150509250929050565b6000602082840312156131bd57600080fd5b60006131cb84828501612f9b565b91505092915050565b6000602082840312156131e657600080fd5b60006131f484828501612fb0565b91505092915050565b60006020828403121561320f57600080fd5b600061321d84828501612fef565b91505092915050565b60006132328383613cf1565b905092915050565b60006132468383613e11565b60408301905092915050565b61325b816146d3565b82525050565b61326a816146d3565b82525050565b600061327b82614518565b613285818561455e565b935083602082028501613297856144f8565b8060005b858110156132d357848403895281516132b48582613226565b94506132bf83614544565b925060208a0199505060018101905061329b565b50829750879550505050505092915050565b60006132f082614523565b6132fa818561456f565b935061330583614508565b8060005b8381101561333657815161331d888261323a565b975061332883614551565b925050600181019050613309565b5085935050505092915050565b61334c816146e5565b82525050565b600061335d8261452e565b6133678185614580565b9350613377818560208601614756565b613380816148f1565b840191505092915050565b600061339682614539565b6133a08185614591565b93506133b0818560208601614756565b6133b9816148f1565b840191505092915050565b60006133cf82614539565b6133d981856145a2565b93506133e9818560208601614756565b6133f2816148f1565b840191505092915050565b600061340882614539565b61341281856145b3565b9350613422818560208601614756565b80840191505092915050565b600061343b600b836145b3565b91507f202d2d204e465420233a200000000000000000000000000000000000000000006000830152600b82019050919050565b600061347b6032836145a2565b91507f4552433732313a207472616e7366657220746f206e6f6e20455243373231526560008301527f63656976657220696d706c656d656e74657200000000000000000000000000006020830152604082019050919050565b60006134e16028836145a2565b91507f4572726f723a20626f7373206d757374206861766520485020746f206174746160008301527f636b20626f73732e0000000000000000000000000000000000000000000000006020830152604082019050919050565b6000613547601c836145a2565b91507f4552433732313a20746f6b656e20616c7265616479206d696e746564000000006000830152602082019050919050565b60006135876065836145b3565b91507f222c20226465736372697074696f6e223a20225468697320697320616e204e4660008301527f542074686174206c6574732070656f706c6520706c617920696e20746865204760208301527f616d65206f66204e465468726f6e657321222c2022696d616765223a2022697060408301527f66733a2f2f0000000000000000000000000000000000000000000000000000006060830152606582019050919050565b6000613639600e836145b3565b91507f2c20226d61785f76616c7565223a0000000000000000000000000000000000006000830152600e82019050919050565b60006136796024836145a2565b91507f4552433732313a207472616e7366657220746f20746865207a65726f2061646460008301527f72657373000000000000000000000000000000000000000000000000000000006020830152604082019050919050565b60006136df6019836145a2565b91507f4552433732313a20617070726f766520746f2063616c6c6572000000000000006000830152602082019050919050565b600061371f602c836145a2565b91507f4552433732313a206f70657261746f7220717565727920666f72206e6f6e657860008301527f697374656e7420746f6b656e00000000000000000000000000000000000000006020830152604082019050919050565b60006137856038836145a2565b91507f4552433732313a20617070726f76652063616c6c6572206973206e6f74206f7760008301527f6e6572206e6f7220617070726f76656420666f7220616c6c00000000000000006020830152604082019050919050565b60006137eb602a836145a2565b91507f4552433732313a2062616c616e636520717565727920666f7220746865207a6560008301527f726f2061646472657373000000000000000000000000000000000000000000006020830152604082019050919050565b60006138516029836145a2565b91507f4552433732313a206f776e657220717565727920666f72206e6f6e657869737460008301527f656e7420746f6b656e00000000000000000000000000000000000000000000006020830152604082019050919050565b60006138b7602d836145a2565b91507f4572726f723a20636861726163746572206d757374206861766520485020746f60008301527f2061747461636b20626f73732e000000000000000000000000000000000000006020830152604082019050919050565b600061391d6004836145b3565b91507f7d205d7d000000000000000000000000000000000000000000000000000000006000830152600482019050919050565b600061395d6020836145a2565b91507f4552433732313a206d696e7420746f20746865207a65726f20616464726573736000830152602082019050919050565b600061399d602c836145a2565b91507f4552433732313a20617070726f76656420717565727920666f72206e6f6e657860008301527f697374656e7420746f6b656e00000000000000000000000000000000000000006020830152604082019050919050565b6000613a036029836145a2565b91507f4552433732313a207472616e73666572206f6620746f6b656e2074686174206960008301527f73206e6f74206f776e00000000000000000000000000000000000000000000006020830152604082019050919050565b6000613a69600a836145b3565b91507f7b226e616d65223a2022000000000000000000000000000000000000000000006000830152600a82019050919050565b6000613aa96021836145a2565b91507f4552433732313a20617070726f76616c20746f2063757272656e74206f776e6560008301527f72000000000000000000000000000000000000000000000000000000000000006020830152604082019050919050565b6000613b0f601d836145b3565b91507f646174613a6170706c69636174696f6e2f6a736f6e3b6261736536342c0000006000830152601d82019050919050565b6000613b4f6031836145a2565b91507f4552433732313a207472616e736665722063616c6c6572206973206e6f74206f60008301527f776e6572206e6f7220617070726f7665640000000000000000000000000000006020830152604082019050919050565b6000613bb5603d836145b3565b91507f222c202261747472696275746573223a205b207b202274726169745f7479706560008301527f223a20224865616c746820506f696e7473222c202276616c7565223a200000006020830152603d82019050919050565b6000613c1b602d836145b3565b91507f7d2c207b202274726169745f74797065223a202241747461636b2044616d616760008301527f65222c202276616c7565223a20000000000000000000000000000000000000006020830152602d82019050919050565b600060a0830160008301518482036000860152613c91828261338b565b91505060208301518482036020860152613cab828261338b565b9150506040830151613cc06040860182613e40565b506060830151613cd36060860182613e40565b506080830151613ce66080860182613e40565b508091505092915050565b600060c083016000830151613d096000860182613e40565b5060208301518482036020860152613d21828261338b565b91505060408301518482036040860152613d3b828261338b565b9150506060830151613d506060860182613e40565b506080830151613d636080860182613e40565b5060a0830151613d7660a0860182613e40565b508091505092915050565b600060c083016000830151613d996000860182613e40565b5060208301518482036020860152613db1828261338b565b91505060408301518482036040860152613dcb828261338b565b9150506060830151613de06060860182613e40565b506080830151613df36080860182613e40565b5060a0830151613e0660a0860182613e40565b508091505092915050565b604082016000820151613e276000850182613252565b506020820151613e3a6020850182613e40565b50505050565b613e498161473d565b82525050565b613e588161473d565b82525050565b6000613e6982613a5c565b9150613e7582896133fd565b9150613e808261342e565b9150613e8c82886133fd565b9150613e978261357a565b9150613ea382876133fd565b9150613eae82613ba8565b9150613eba82866133fd565b9150613ec58261362c565b9150613ed182856133fd565b9150613edc82613c0e565b9150613ee882846133fd565b9150613ef382613910565b9150819050979650505050505050565b6000613f0e82613b02565b9150613f1a82846133fd565b915081905092915050565b6000602082019050613f3a6000830184613261565b92915050565b6000608082019050613f556000830187613261565b613f626020830186613261565b613f6f6040830185613e4f565b8181036060830152613f818184613352565b905095945050505050565b6000606082019050613fa16000830186613261565b613fae6020830185613e4f565b613fbb6040830184613e4f565b949350505050565b60006020820190508181036000830152613fdd8184613270565b905092915050565b60006020820190508181036000830152613fff81846132e5565b905092915050565b600060208201905061401c6000830184613343565b92915050565b6000602082019050818103600083015261403c81846133c4565b905092915050565b6000608082019050818103600083015261405e81876133c4565b9050818103602083015261407281866133c4565b90506140816040830185613e4f565b818103606083015261409381846133c4565b905095945050505050565b600060808201905081810360008301526140b881876133c4565b905081810360208301526140cc81866133c4565b90506140db6040830185613e4f565b6140e86060830184613e4f565b95945050505050565b600060a082019050818103600083015261410b81886133c4565b9050818103602083015261411f81876133c4565b905061412e6040830186613e4f565b61413b6060830185613e4f565b6141486080830184613e4f565b9695505050505050565b6000604082019050818103600083015261416c81856133c4565b905061417b6020830184613e4f565b9392505050565b6000606082019050818103600083015261419c81866133c4565b90506141ab6020830185613e4f565b6141b86040830184613e4f565b949350505050565b600060208201905081810360008301526141d98161346e565b9050919050565b600060208201905081810360008301526141f9816134d4565b9050919050565b600060208201905081810360008301526142198161353a565b9050919050565b600060208201905081810360008301526142398161366c565b9050919050565b60006020820190508181036000830152614259816136d2565b9050919050565b6000602082019050818103600083015261427981613712565b9050919050565b6000602082019050818103600083015261429981613778565b9050919050565b600060208201905081810360008301526142b9816137de565b9050919050565b600060208201905081810360008301526142d981613844565b9050919050565b600060208201905081810360008301526142f9816138aa565b9050919050565b6000602082019050818103600083015261431981613950565b9050919050565b6000602082019050818103600083015261433981613990565b9050919050565b60006020820190508181036000830152614359816139f6565b9050919050565b6000602082019050818103600083015261437981613a9c565b9050919050565b6000602082019050818103600083015261439981613b42565b9050919050565b600060208201905081810360008301526143ba8184613c74565b905092915050565b600060208201905081810360008301526143dc8184613d81565b905092915050565b60006020820190506143f96000830184613e4f565b92915050565b600060c0820190506144146000830189613e4f565b818103602083015261442681886133c4565b9050818103604083015261443a81876133c4565b90506144496060830186613e4f565b6144566080830185613e4f565b61446360a0830184613e4f565b979650505050505050565b60006040820190506144836000830185613e4f565b6144906020830184613e4f565b9392505050565b6000604051905081810181811067ffffffffffffffff821117156144be576144bd6148c2565b5b8060405250919050565b600067ffffffffffffffff8211156144e3576144e26148c2565b5b601f19601f8301169050602081019050919050565b6000819050602082019050919050565b6000819050602082019050919050565b600081519050919050565b600081519050919050565b600081519050919050565b600081519050919050565b6000602082019050919050565b6000602082019050919050565b600082825260208201905092915050565b600082825260208201905092915050565b600082825260208201905092915050565b600082825260208201905092915050565b600082825260208201905092915050565b600081905092915050565b60006145c98261473d565b91506145d48361473d565b9250827fffffffffffffffffffffffffffffffffffffffffffffffffffffffffffffffff0382111561460957614608614835565b5b828201905092915050565b600061461f8261473d565b915061462a8361473d565b92508261463a57614639614864565b5b828204905092915050565b60006146508261473d565b915061465b8361473d565b9250817fffffffffffffffffffffffffffffffffffffffffffffffffffffffffffffffff048311821515161561469457614693614835565b5b828202905092915050565b60006146aa8261473d565b91506146b58361473d565b9250828210156146c8576146c7614835565b5b828203905092915050565b60006146de8261471d565b9050919050565b60008115159050919050565b60007fffffffff0000000000000000000000000000000000000000000000000000000082169050919050565b600073ffffffffffffffffffffffffffffffffffffffff82169050919050565b6000819050919050565b82818337600083830152505050565b60005b83811015614774578082015181840152602081019050614759565b83811115614783576000848401525b50505050565b600060028204905060018216806147a157607f821691505b602082108114156147b5576147b4614893565b5b50919050565b60006147c68261473d565b91507fffffffffffffffffffffffffffffffffffffffffffffffffffffffffffffffff8214156147f9576147f8614835565b5b600182019050919050565b600061480f8261473d565b915061481a8361473d565b92508261482a57614829614864565b5b828206905092915050565b7f4e487b7100000000000000000000000000000000000000000000000000000000600052601160045260246000fd5b7f4e487b7100000000000000000000000000000000000000000000000000000000600052601260045260246000fd5b7f4e487b7100000000000000000000000000000000000000000000000000000000600052602260045260246000fd5b7f4e487b7100000000000000000000000000000000000000000000000000000000600052604160045260246000fd5b6000601f19601f8301169050919050565b61490b816146d3565b811461491657600080fd5b50565b614922816146e5565b811461492d57600080fd5b50565b614939816146f1565b811461494457600080fd5b50565b6149508161473d565b811461495b57600080fd5b5056fe506c617965722061747461636b656420626f73732e204e657720626f73732068703a2025734142434445464748494a4b4c4d4e4f505152535455565758595a6162636465666768696a6b6c6d6e6f707172737475767778797a303132333435363738392b2f426f73732061747461636b656420706c617965722e204e657720706c617965722068703a2025730a4d696e746564204e465420772f20746f6b656e496420257320616e6420636861726163746572496e6465782025730a506c6179657220772f206368617261637465722025732061626f757420746f2061747461636b2e2048617320257320485020616e64202573204144a2646970667358221220a42c83959c1cc34406e98b411936b92d48bdffdb0f5e9b6573aa4ea7077bff5964736f6c63430008000033446f6e6520696e697469616c697a696e6720257320772f2048502025732c20696d67202573446f6e6520696e697469616c697a696e6720626f737320257320772f2048502025732c20696d67202573",
  "linkReferences": {},
  "deployedLinkReferences": {}
}